{
  "_format": "hh-sol-artifact-1",
  "contractName": "SaveGame",
  "sourceName": "contracts/GameEngine.sol",
  "abi": [
    {
      "inputs": [],
      "stateMutability": "nonpayable",
      "type": "constructor"
    },
    {
      "anonymous": false,
      "inputs": [
        {
          "indexed": false,
          "internalType": "address",
          "name": "sender",
          "type": "address"
        },
        {
          "indexed": false,
          "internalType": "uint256",
          "name": "tokenId",
          "type": "uint256"
        },
        {
          "indexed": false,
          "internalType": "string",
          "name": "tokenURI",
          "type": "string"
        },
        {
          "indexed": false,
          "internalType": "string",
          "name": "recordNowCID",
          "type": "string"
        }
      ],
      "name": "NewRecordSaved",
      "type": "event"
    },
    {
      "inputs": [],
      "name": "recordNum",
      "outputs": [
        {
          "internalType": "uint256",
          "name": "",
          "type": "uint256"
        }
      ],
      "stateMutability": "view",
      "type": "function"
    },
    {
      "inputs": [
        {
          "internalType": "string",
          "name": "NewRecordCID",
          "type": "string"
        }
      ],
      "name": "saveRecord",
      "outputs": [
        {
          "internalType": "uint256",
          "name": "",
          "type": "uint256"
        }
      ],
      "stateMutability": "nonpayable",
      "type": "function"
    }
  ],
  "bytecode": "0x608060405234801561001057600080fd5b506100596040518060400160405280601881526020017f54686973206973206d79207361766520636f6e7472616374000000000000000081525061006660201b6100961760201c565b60006001819055506101e9565b6101028160405160240161007a9190610167565b6040516020818303038152906040527f41304fac000000000000000000000000000000000000000000000000000000007bffffffffffffffffffffffffffffffffffffffffffffffffffffffff19166020820180517bffffffffffffffffffffffffffffffffffffffffffffffffffffffff838183161783525050505061010560201b60201c565b50565b60008151905060006a636f6e736f6c652e6c6f679050602083016000808483855afa5050505050565b600061013982610189565b6101438185610194565b93506101538185602086016101a5565b61015c816101d8565b840191505092915050565b60006020820190508181036000830152610181818461012e565b905092915050565b600081519050919050565b600082825260208201905092915050565b60005b838110156101c35780820151818401526020810190506101a8565b838111156101d2576000848401525b50505050565b6000601f19601f8301169050919050565b6103eb806101f86000396000f3fe608060405234801561001057600080fd5b50600436106100365760003560e01c80633037801e1461003b5780633b73a6c014610059575b600080fd5b610043610089565b604051610050919061026b565b60405180910390f35b610073600480360381019061006e91906101c0565b61008f565b604051610080919061026b565b60405180910390f35b60015481565b6000919050565b61012c816040516024016100aa9190610249565b6040516020818303038152906040527f41304fac000000000000000000000000000000000000000000000000000000007bffffffffffffffffffffffffffffffffffffffffffffffffffffffff19166020820180517bffffffffffffffffffffffffffffffffffffffffffffffffffffffff838183161783525050505061012f565b50565b60008151905060006a636f6e736f6c652e6c6f679050602083016000808483855afa5050505050565b600061016b610166846102ab565b610286565b90508281526020810184848401111561018357600080fd5b61018e848285610302565b509392505050565b600082601f8301126101a757600080fd5b81356101b7848260208601610158565b91505092915050565b6000602082840312156101d257600080fd5b600082013567ffffffffffffffff8111156101ec57600080fd5b6101f884828501610196565b91505092915050565b600061020c826102dc565b61021681856102e7565b9350610226818560208601610311565b61022f816103a4565b840191505092915050565b610243816102f8565b82525050565b600060208201905081810360008301526102638184610201565b905092915050565b6000602082019050610280600083018461023a565b92915050565b60006102906102a1565b905061029c8282610344565b919050565b6000604051905090565b600067ffffffffffffffff8211156102c6576102c5610375565b5b6102cf826103a4565b9050602081019050919050565b600081519050919050565b600082825260208201905092915050565b6000819050919050565b82818337600083830152505050565b60005b8381101561032f578082015181840152602081019050610314565b8381111561033e576000848401525b50505050565b61034d826103a4565b810181811067ffffffffffffffff8211171561036c5761036b610375565b5b80604052505050565b7f4e487b7100000000000000000000000000000000000000000000000000000000600052604160045260246000fd5b6000601f19601f830116905091905056fea2646970667358221220d3c3a953124e906df1467de55f106961fa0a693cd303af4196f1bce4f9ea2a2264736f6c63430008040033",
  "linkReferences": {},
  "deployedLinkReferences": {}
}