{
  "_format": "hh-sol-artifact-1",
  "contractName": "EventExample",
  "sourceName": "contracts/EventExample.sol",
  "abi": [
    {
      "anonymous": false,
      "inputs": [
        {
          "indexed": false,
          "internalType": "uint256",
          "name": "data1",
          "type": "uint256"
        },
        {
          "indexed": true,
          "internalType": "uint256",
          "name": "data2",
          "type": "uint256"
        }
      ],
      "name": "DataStored",
      "type": "event"
    },
    {
      "inputs": [
        {
          "internalType": "uint256",
          "name": "_data1",
          "type": "uint256"
        },
        {
          "internalType": "uint256",
          "name": "_data2",
          "type": "uint256"
        }
      ],
      "name": "storeData",
      "outputs": [],
      "stateMutability": "nonpayable",
      "type": "function"
    }
  ],
  "bytecode": "0x608060405234801561001057600080fd5b5061016c806100206000396000f3fe608060405234801561001057600080fd5b506004361061002b5760003560e01c8063711c1c4a14610030575b600080fd5b61004a600480360381019061004591906100af565b61004c565b005b81600081905550806001819055506001547fd3b6c594451bea3204716c9e34653b521ace3900157ba74eabc1390c20bb8c9860005460405161008e91906100fa565b60405180910390a25050565b6000813590506100a98161011f565b92915050565b600080604083850312156100c257600080fd5b60006100d08582860161009a565b92505060206100e18582860161009a565b9150509250929050565b6100f481610115565b82525050565b600060208201905061010f60008301846100eb565b92915050565b6000819050919050565b61012881610115565b811461013357600080fd5b5056fea26469706673582212202616424ae48dd146ff749abf333e85abcfb8b2f6fc5a65326367cfdad191ab1564736f6c63430008040033",
  "linkReferences": {},
  "deployedLinkReferences": {}
}